:100C8A005246494420424153454420434152005070
:100C9A0041524B494E472053595354454D005357DF
:100CAA0049504520594F555220434152440052461B
:100CBA004944205343414E4E45443A004142313261
:100CCA0033343536373839300042433132333435EC
:100CDA0036373839300043443132333435363738D1
:100CEA0039300044453132333435363738393000FB
:100CFA00414343455353204752414E5445440041D2
:100D0A0042202D20424C4F434B203030004243209A
:100D1A002D20424C4F434B203031004344202D209C
:100D2A00424C4F434B203130004445202D20424C49
:100D3A004F434B20313100444F4F52204F50454EC4
:100D4A00494E4700414C4C4F5720494E5349444560
:100D5A0000414C4C4F57204558495400444F4F527C
:100D6A0020434C4F53494E47004143434553532078
:100D7A0044454E49454400494E56414C4944204356
:040D8A00415244008E
:100F0300020800000D0A00000000000000000000BD
:030F1300000000DB
:100E1A00C2A1C2A0120F42120ED57BFF7A0C798AA8
:100E2A00120EB27FC0120F267BFF7A0C7999120E2E
:100E3A00B2120F17120F177F01120F267F01120F1E
:100E4A00267BFF7A0C79A8120EB2E4F5173098FDCA
:100E5A0074182517F8A699C29874182517F8E6F594
:100E6A00993099FDC2990517E517B40CE0E4F52409
:050E7A00120AE080C730
:100AE0007B007A007918120EEEC3EF940CEE94009E
:100AF0005003020C897F01120F267BFF7A0C79B814
:100B0000120EB27FC0120F267B007A007918120EE7
:100B1000B2120F1778187C007D007BFF7A0C79C623
:100B20001209C1EF603978187C007D007BFF7A0CD8
:100B300079D31209C1EF602778187C007D007BFF14
:100B40007A0C79E01209C1EF601578187C007D00FD
:100B50007BFF7A0C79ED1209C1EF6003020C6A7811
:100B60000A7C007D007B007A0079181209C1EF70C1
:100B70000A0509E509700A05088006750800750967
:100B800001780A7C007D007B007A007918120AAA9D
:100B90007F01120F267BFF7A0C79FA120EB2E5095B
:100BA00020E003020C2C7FC0120F2678187C007DF9
:100BB000007BFF7A0C79C61209C1EF70087BFF7ABF
:100BC0000D7909804C78187C007D007BFF7A0C79C8
:100BD000D31209C1EF70087BFF7A0D791780327844
:100BE000187C007D007BFF7A0C79E01209C1EF7060
:100BF000087BFF7A0D7925801878187C007D007BB2
:100C0000FF7A0C79ED1209C1EF70097BFF7A0D793B
:100C100033120EB2120F177F01120F26120EAC7F85
:100C2000C0120F267BFF7A0D794E80137F01120FC1
:100C300026120EAC7FC0120F267BFF7A0D795B1255
:100C40000EB2D2A0C2A1120E7FC2A0C2A1120F1773
:100C50007F01120F267BFF7A0D7966120EB2C2A0B9
:100C6000D2A1120E7FC2A0C2A1227F01120F267B49
:100C7000FF7A0D7973120EB27FC0120F267BFF7AB6
:090C80000D7981120EB2120E7FF3
:010C89002248
:100ED5007F38120F267F01120F267F10120F267FF3
:090EE5000C120F267F80020F267B
:0E0F26008F90C2A5C2A6D2A7120F17C2A72293
:0E0F34008F90D2A5C2A6D2A7120F17C2A72275
:060EAC007BFF7A0D794185
:060EB2008B258A2689272A
:100EB800E4F528AB25AA26A9278528827583001280
:0C0EC8000800FF6007120F34052880E7C7
:010ED40022FB
:0C0F4200759850758920758DFDD28E22A7
:0E0F1700E4FFFE0FBF00010EBE27F8BF10F56D
:010F250022A9
:100E7F00E4F525F526900000AF82AE83E4FCFD7B00
:100E8F00607AEAF9F8D312082D4003A380EA052609
:0C0E9F00E526700205256402452570D987
:010EAB002224
:03000000020D8E60
:0C0D8E00787FE4F6D8FD758128020DD5B1
:10080000BB010CE58229F582E5833AF583E02250AD
:1008100006E92582F8E622BBFE06E92582F8E222F7
:0D082000E58229F582E5833AF583E4932211
:10082D00EB9FF5F0EA9E42F0E99D42F0EC6480C842
:06083D0064809845F022E2
:10084300E3F5F009E208B5F06D606B80F3E3F5F0D2
:1008530009E608B5F060605E80F387F009E608B545
:10086300F054605280F487F009E208B5F04860461E
:1008730080F488828C8387F009E0A3B5F038603672
:1008830080F488828C8387F009E493A3B5F0276012
:100893002580F388828C83E3F5F009E0A3B5F01695
:1008A300601480F388828C83E3F5F009E493A3B5A5
:1008B300F004600280F202096E808580E7808E80FA
:1008C300D2803C8015806C807E809B80B5808B803D
:1008D300A1804F8070803A02097A89828A83ECFA78
:1008E300E493F5F0A3C8C582C8CCC583CCE493A335
:1008F300C8C582C8CCC583CCB5F070606E80E18971
:10090300828A83E493F5F0A3E208B5F05E605C802D
:10091300F289828A83E0F5F0A3E608B5F04D604BD7
:1009230080F389828A83E0F5F0A3E208B5F03C60A6
:100933003A80F389828A83E493F5F0A3E608B5F05D
:100943002A602880F2805389828A83ECFAE493F543
:10095300F0A3C8C582C8CCC583CCE0A3C8C582C8F0
:10096300CCC583CCB5F004600280E27FFFB5F00212
:100973000F2240027F012289828A83ECFAE0F5F09C
:10098300A3C8C582C8CCC583CCE0A3C8C582C8CCE4
:10099300C583CCB5F0D560D380E389828A83ECFA32
:1009A300E0F5F0A3C8C582C8CCC583CCE493A3C843
:1009B300C582C8CCC583CCB5F0B160AF80E288F006
:1009C300ED2402B4040050A3F582EB2402B4040026
:0B09D300509923234582239008BC7339
:1009DE00E709F60870FA8046E709F20870FA803ED9
:1009EE0088828C83E709F0A370FA807EE309F6080B
:1009FE0070FA8076E309F20870FA806E88828C8332
:100A0E00E309F0A370FA806289828A83E0A3F60874
:100A1E0070FA805689828A83E0A3F20870FA804ABF
:100A2E0080D280FA80C680D4806580F280318010BA
:100A3E0080A680EA809A80A880DA80E280CA80311F
:100A4E0089828A83ECFAE493A3C8C582C8CCC58395
:100A5E00CCF0A3C8C582C8CCC583CC70E9800D8903
:100A6E00828A83E493A3F60870F9ECFAA9F0EDFB01
:100A7E002289828A83ECFAE0A3C8C582C8CCC583DA
:100A8E00CCF0A3C8C582C8CCC583CC70EA80DD8902
:100A9E00828A83E493A3F20870F980CE88F0ED2465
:100AAE0002B4040050C4F582EB2402B4040050BA20
:090ABE002323458223900A2E73C4
:100EEE00E4FFFE120AC7600C0FEF70010E09E970E5
:050EFE00F20A80EF2262
:100D9A00020E1AE493A3F8E493A34003F68001F247
:100DAA0008DFF48029E493A3F85407240CC8C3335A
:100DBA00C4540F4420C8834004F456800146F6DF29
:100DCA00E4800B0102040810204080900F03E47EA7
:100DDA00019360BCA3FF543F30E509541FFEE4931E
:100DEA00A360010ECF54C025E060A840B8E493A3E5
:100DFA00FAE493A3F8E493A3C8C582C8CAC583CA10
:100E0A00F0A3C8C582C8CAC583CADFE9DEE780BEC7
:010F160000DA
:100AC700BB010689828A83E0225002E722BBFE022D
:090AD700E32289828A83E4932260
:00000001FF
